:060000000A128A11142906
:100200008A010A140F3982073F3406345B344F34B5
:1002100066346D347D3407347F346F3477347C3406
:1002200039345E34793471340317831688018901B7
:10023000031383160330850000308600F0308700FA
:10024000003088000313831285018601870188012D
:1002500035213C2105184B21851852210B1D2E29D3
:100260004721870A06105C212A29031383160F13DE
:100270008F160F120F1408000313831681128111B9
:1002800001158114011003138312472108000B305C
:1002900081000B11080005184B29F00A7008002195
:1002A0008800080085185229F00B7008002188008A
:1002B0000800061487010800070870020319592175
:0202C000080034
:04400E00C430FF3F7C
:00000001FF
